{
    "contractName": "SupplierSelection",
    "abi": [
        {
            "constant": false,
            "inputs": [
                {
                    "internalType": "uint256",
                    "name": "_supplierId",
                    "type": "uint256"
                }
            ],
            "name": "vote",
            "outputs": [],
            "payable": false,
            "stateMutability": "nonpayable",
            "type": "function"
        },
        {
            "constant": true,
            "inputs": [],
            "name": "supplierCount",
            "outputs": [
                {
                    "internalType": "uint256",
                    "name": "",
                    "type": "uint256"
                }
            ],
            "payable": false,
            "stateMutability": "view",
            "type": "function"
        },
        {
            "constant": true,
            "inputs": [
                {
                    "internalType": "address",
                    "name": "",
                    "type": "address"
                }
            ],
            "name": "voters",
            "outputs": [
                {
                    "internalType": "bool",
                    "name": "",
                    "type": "bool"
                }
            ],
            "payable": false,
            "stateMutability": "view",
            "type": "function"
        },
        {
            "constant": true,
            "inputs": [
                {
                    "internalType": "uint256",
                    "name": "",
                    "type": "uint256"
                }
            ],
            "name": "suppliers",
            "outputs": [
                {
                    "internalType": "uint256",
                    "name": "id",
                    "type": "uint256"
                },
                {
                    "internalType": "string",
                    "name": "name",
                    "type": "string"
                },
                {
                    "internalType": "uint256",
                    "name": "voteCount",
                    "type": "uint256"
                }
            ],
            "payable": false,
            "stateMutability": "view",
            "type": "function"
        },
        {
            "inputs": [],
            "payable": false,
            "stateMutability": "nonpayable",
            "type": "constructor"
        },
        {
            "anonymous": false,
            "inputs": [
                {
                    "indexed": false,
                    "internalType": "uint256",
                    "name": "_supplierId",
                    "type": "uint256"
                }
            ],
            "name": "voteCast",
            "type": "event"
        }
    ],
    "bytecode": "608060405234801561001057600080fd5b5060408051808201909152600a81527f537570706c6965722041000000000000000000000000000000000000000000006020820152610057906001600160e01b036100e816565b60408051808201909152600a81527f537570706c696572204200000000000000000000000000000000000000000000602082015261009d906001600160e01b036100e816565b60408051808201909152600a81527f537570706c69657220430000000000000000000000000000000000000000000060208201526100e3906001600160e01b036100e816565b6101e1565b600080546001908101808355604080516060810182528281526020808201878152828401879052938652848152919094208451815591518051929361013593908501929190910190610146565b506040820151816002015590505050565b828054600181600116156101000203166002900490600052602060002090601f016020900481019282601f1061018757805160ff19168380011785556101b4565b828001600101855582156101b4579182015b828111156101b4578251825591602001919060010190610199565b506101c09291506101c4565b5090565b6101de91905b808211156101c057600081556001016101ca565b90565b6103bb806101f06000396000f3fe608060405234801561001057600080fd5b506004361061004c5760003560e01c80630121b93f14610051578063140c6b9114610070578063a3ec138d1461008a578063cea23121146100c4575b600080fd5b61006e6004803603602081101561006757600080fd5b5035610167565b005b610078610283565b60408051918252519081900360200190f35b6100b0600480360360208110156100a057600080fd5b50356001600160a01b0316610289565b604080519115158252519081900360200190f35b6100e1600480360360208110156100da57600080fd5b503561029e565b6040518084815260200180602001838152602001828103825284818151815260200191508051906020019080838360005b8381101561012a578181015183820152602001610112565b50505050905090810190601f1680156101575780820380516001836020036101000a031916815260200191505b5094505050505060405180910390f35b3360009081526002602052604090205460ff16156101b65760405162461bcd60e51b815260040180806020018281038252603c81526020018061034b603c913960400191505060405180910390fd5b6000811180156101c857506000548111155b610219576040805162461bcd60e51b815260206004820152601760248201527f43686f6f736520612076616c696420737570706c696572000000000000000000604482015290519081900360640190fd5b336000908152600260208181526040808420805460ff19166001908117909155858552808352938190209092018054909301909255805183815290517ffba21f813b437e1b79749e0ee7c901afd00cebd7ac146b3128a46e32b130ab1f929181900390910190a150565b60005481565b60026020526000908152604090205460ff1681565b600160208181526000928352604092839020805481840180548651600296821615610100026000190190911695909504601f8101859004850286018501909652858552909491939290919083018282801561033a5780601f1061030f5761010080835404028352916020019161033a565b820191906000526020600020905b81548152906001019060200180831161031d57829003601f168201915b505050505090806002015490508356fe596f7572206164647265737320616c726561647920636173746564206120766f746520696e20746869732073656c656374696f6e2070726f63657373a265627a7a72315820073bbd790927ccdf402d809715819726f98fdb892518384ef2b6ac930b290b4f64736f6c634300050b0032",
    "sourcePath": "/Users/aceituno/Documents/Thesis/Solidity/election/contracts/SupplierSelection.sol",
    "compiler": {
        "name": "solc",
        "version": "0.5.11+commit.c082d0b4"
    },
    "functionHashes": {
        "supplierCount()": "140c6b91",
        "suppliers(uint256)": "cea23121",
        "vote(uint256)": "0121b93f",
        "voters(address)": "a3ec138d"
    },
    "gasEstimates": {
        "creation": {
            "codeDepositCost": "191000",
            "executionCost": "infinite",
            "totalCost": "infinite"
        },
        "external": {
            "supplierCount()": "398",
            "suppliers(uint256)": "infinite",
            "vote(uint256)": "infinite",
            "voters(address)": "558"
        },
        "internal": {
            "addSupplier(string memory)": "infinite"
        }
    }
}