{
  "contractName": "Election",
  "abi": [
    {
      "inputs": [],
      "payable": false,
      "stateMutability": "nonpayable",
      "type": "constructor"
    },
    {
      "constant": true,
      "inputs": [
        {
          "internalType": "uint256",
          "name": "",
          "type": "uint256"
        }
      ],
      "name": "candidates",
      "outputs": [
        {
          "internalType": "uint256",
          "name": "id",
          "type": "uint256"
        },
        {
          "internalType": "string",
          "name": "name",
          "type": "string"
        },
        {
          "internalType": "uint256",
          "name": "voteCount",
          "type": "uint256"
        }
      ],
      "payable": false,
      "stateMutability": "view",
      "type": "function"
    },
    {
      "constant": true,
      "inputs": [],
      "name": "candidatesCount",
      "outputs": [
        {
          "internalType": "uint256",
          "name": "",
          "type": "uint256"
        }
      ],
      "payable": false,
      "stateMutability": "view",
      "type": "function"
    }
  ],
  "bytecode": "0x608060405234801561001057600080fd5b506100556040518060400160405280600481526020017f416e64790000000000000000000000000000000000000000000000000000000081525061016a60201b60201c565b6100996040518060400160405280600681526020017f4272656e6461000000000000000000000000000000000000000000000000000081525061016a60201b60201c565b6100dd6040518060400160405280600781526020017f436861726c69650000000000000000000000000000000000000000000000000081525061016a60201b60201c565b6101216040518060400160405280600581526020017f44796c616e00000000000000000000000000000000000000000000000000000081525061016a60201b60201c565b6101656040518060400160405280600481526020017f456c6f6e0000000000000000000000000000000000000000000000000000000081525061016a60201b60201c565b61028a565b60016000815480929190600101919050555060405180606001604052806001548152602001828152602001600081525060008060015481526020019081526020016000206000820151816000015560208201518160010190805190602001906101d49291906101e5565b506040820151816002015590505050565b828054600181600116156101000203166002900490600052602060002090601f016020900481019282601f1061022657805160ff1916838001178555610254565b82800160010185558215610254579182015b82811115610253578251825591602001919060010190610238565b5b5090506102619190610265565b5090565b61028791905b8082111561028357600081600090555060010161026b565b5090565b90565b61020b806102996000396000f3fe608060405234801561001057600080fd5b50600436106100365760003560e01c80632d35a8a21461003b5780633477ee2e14610059575b600080fd5b61004361010e565b6040518082815260200191505060405180910390f35b6100856004803603602081101561006f57600080fd5b8101908080359060200190929190505050610114565b6040518084815260200180602001838152602001828103825284818151815260200191508051906020019080838360005b838110156100d15780820151818401526020810190506100b6565b50505050905090810190601f1680156100fe5780820380516001836020036101000a031916815260200191505b5094505050505060405180910390f35b60015481565b6000602052806000526040600020600091509050806000015490806001018054600181600116156101000203166002900480601f0160208091040260200160405190810160405280929190818152602001828054600181600116156101000203166002900480156101c65780601f1061019b576101008083540402835291602001916101c6565b820191906000526020600020905b8154815290600101906020018083116101a957829003601f168201915b505050505090806002015490508356fea265627a7a72315820362bff66d554d2b9670bc2cf881a13848853c7cd206338ff417e0561e96419e964736f6c634300050f0032",
  "source": "\npragma solidity ^0.5.10;\n\ncontract Election {\n\n  // model for candidate\n  struct Candidate {\n    uint id;\n    string name;\n    uint voteCount;\n  }\n\n  // store in hash-table and get candidates by declaring it a public variable (automatic in Solidity)\n  mapping(uint => Candidate) public candidates;\n\n  // count of the store candidates, because (1) in Solidity there is no way to get the size of a mapping or (2) iterate over it with a loop\n  // any key we haven't set a value for returns the default value (in this case an empty candidate)\n  uint public candidatesCount;\n\n  // constructor for contract object\n  constructor() public {\n    addCandidate('Andy');\n    addCandidate('Brenda');\n    addCandidate('Charlie');\n    addCandidate('Dylan');\n    addCandidate('Elon');\n  }\n\n  // add one candidate to the count and add it to the hash table with the key given by the count and the value of an internal id, name and zero votes\n  function addCandidate (string memory _name) private {\n    candidatesCount ++;\n    candidates[candidatesCount] = Candidate(candidatesCount, _name, 0);\n  }\n}",
  "sourcePath": "/Users/aceituno/Documents/Thesis/Solidity/election/contracts/Election.sol",
  "compiler": {
    "name": "solc",
    "version": "0.5.15+commit.6a57276f.Emscripten.clang"
  },
  "schemaVersion": "3.0.20",
  "updatedAt": "2019-12-24T22:34:53.146Z",
  "networkType": "ethereum",
  "devdoc": {
    "methods": {}
  },
  "userdoc": {
    "methods": {}
  }
}