{
  "contractName": "SupplierSelection",
  "abi": [
    {
      "inputs": [],
      "payable": false,
      "stateMutability": "nonpayable",
      "type": "constructor"
    },
    {
      "anonymous": false,
      "inputs": [
        {
          "indexed": false,
          "internalType": "uint256",
          "name": "_supplierId",
          "type": "uint256"
        }
      ],
      "name": "VoteCast",
      "type": "event"
    },
    {
      "constant": true,
      "inputs": [],
      "name": "supplierCount",
      "outputs": [
        {
          "internalType": "uint256",
          "name": "",
          "type": "uint256"
        }
      ],
      "payable": false,
      "stateMutability": "view",
      "type": "function"
    },
    {
      "constant": true,
      "inputs": [
        {
          "internalType": "uint256",
          "name": "",
          "type": "uint256"
        }
      ],
      "name": "suppliers",
      "outputs": [
        {
          "internalType": "uint256",
          "name": "id",
          "type": "uint256"
        },
        {
          "internalType": "string",
          "name": "name",
          "type": "string"
        },
        {
          "internalType": "uint256",
          "name": "voteCount",
          "type": "uint256"
        }
      ],
      "payable": false,
      "stateMutability": "view",
      "type": "function"
    },
    {
      "constant": true,
      "inputs": [
        {
          "internalType": "address",
          "name": "",
          "type": "address"
        }
      ],
      "name": "voters",
      "outputs": [
        {
          "internalType": "bool",
          "name": "",
          "type": "bool"
        }
      ],
      "payable": false,
      "stateMutability": "view",
      "type": "function"
    },
    {
      "constant": false,
      "inputs": [
        {
          "internalType": "uint256",
          "name": "_supplierId",
          "type": "uint256"
        }
      ],
      "name": "vote",
      "outputs": [],
      "payable": false,
      "stateMutability": "nonpayable",
      "type": "function"
    }
  ],
  "bytecode": "0x608060405234801561001057600080fd5b506100556040518060400160405280600a81526020017f537570706c6965722041000000000000000000000000000000000000000000008152506100e260201b60201c565b6100996040518060400160405280600a81526020017f537570706c6965722042000000000000000000000000000000000000000000008152506100e260201b60201c565b6100dd6040518060400160405280600a81526020017f537570706c6965722043000000000000000000000000000000000000000000008152506100e260201b60201c565b610201565b6000808154809291906001019190505550604051806060016040528060005481526020018281526020016000815250600160008054815260200190815260200160002060008201518160000155602082015181600101908051906020019061014b92919061015c565b506040820151816002015590505050565b828054600181600116156101000203166002900490600052602060002090601f016020900481019282601f1061019d57805160ff19168380011785556101cb565b828001600101855582156101cb579182015b828111156101ca5782518255916020019190600101906101af565b5b5090506101d891906101dc565b5090565b6101fe91905b808211156101fa5760008160009055506001016101e2565b5090565b90565b6104e6806102106000396000f3fe608060405234801561001057600080fd5b506004361061004c5760003560e01c80630121b93f14610051578063140c6b911461007f578063a3ec138d1461009d578063cea23121146100f9575b600080fd5b61007d6004803603602081101561006757600080fd5b81019080803590602001909291905050506101ae565b005b61008761038d565b6040518082815260200191505060405180910390f35b6100df600480360360208110156100b357600080fd5b81019080803573ffffffffffffffffffffffffffffffffffffffff169060200190929190505050610393565b604051808215151515815260200191505060405180910390f35b6101256004803603602081101561010f57600080fd5b81019080803590602001909291905050506103b3565b6040518084815260200180602001838152602001828103825284818151815260200191508051906020019080838360005b83811015610171578082015181840152602081019050610156565b50505050905090810190601f16801561019e5780820380516001836020036101000a031916815260200191505b5094505050505060405180910390f35b600260003373ffffffffffffffffffffffffffffffffffffffff1673ffffffffffffffffffffffffffffffffffffffff16815260200190815260200160002060009054906101000a900460ff1615610251576040517f08c379a000000000000000000000000000000000000000000000000000000000815260040180806020018281038252603c815260200180610476603c913960400191505060405180910390fd5b60008111801561026357506000548111155b6102d5576040517f08c379a00000000000000000000000000000000000000000000000000000000081526004018080602001828103825260178152602001807f43686f6f736520612076616c696420737570706c69657200000000000000000081525060200191505060405180910390fd5b6001600260003373ffffffffffffffffffffffffffffffffffffffff1673ffffffffffffffffffffffffffffffffffffffff16815260200190815260200160002060006101000a81548160ff02191690831515021790555060016000828152602001908152602001600020600201600081548092919060010191905055507f9593d9bd30eff4872ec3bab10360ad82eaac80651801e68f47f0674c38415c3d816040518082815260200191505060405180910390a150565b60005481565b60026020528060005260406000206000915054906101000a900460ff1681565b6001602052806000526040600020600091509050806000015490806001018054600181600116156101000203166002900480601f0160208091040260200160405190810160405280929190818152602001828054600181600116156101000203166002900480156104655780601f1061043a57610100808354040283529160200191610465565b820191906000526020600020905b81548152906001019060200180831161044857829003601f168201915b505050505090806002015490508356fe596f7572206164647265737320616c726561647920636173746564206120766f746520696e20746869732073656c656374696f6e2070726f63657373a265627a7a723158206debc92070b37e38dfd2d1fa5120e447e99f13ffa94bc95d38efd0b7a43e097d64736f6c63430005100032",
  "source": "pragma solidity ^0.5.10;\n\ncontract SupplierSelection {\n\n  // structure of the supplier object\n  struct Supplier {\n    uint id;\n    string name;\n    uint voteCount;\n  }\n\n  // store the number of suppliers, because (a) in Solidity there is no way to get the size of a hash-table or (b) to be able to iterate over the elements of the hash-table\n  uint public supplierCount;\n\n  // store the different suppliers in hash-table\n  mapping(uint => Supplier) public suppliers;\n\n  // store addresses that have voted\n  mapping(address => bool) public voters;\n\n  // vote event\n  event VoteCast(uint _supplierId);\n\n  // we declare and define the suppliers at the creation of the contract. Afterwards, suppliers cannot be added, deleted or modified. Add to number of suppliers, instantiate a supplier object, and add it to the hash-table\n\n  constructor() public {\n    addSupplier('Supplier A');\n    addSupplier('Supplier B');\n    addSupplier('Supplier C');\n  }\n\n  function addSupplier(string memory _name) private {\n    supplierCount ++;\n    suppliers[supplierCount] = Supplier(supplierCount, _name, 0);\n  }\n\n  function vote(uint _supplierId) public {\n    // require that voter address hasn't voted before\n    require(!voters[msg.sender], 'Your address already casted a vote in this selection process');\n\n    // require a valid supplier id as an argument\n    require(_supplierId > 0 && _supplierId <= supplierCount, 'Choose a valid supplier');\n\n    // record that address has voted\n    voters[msg.sender] = true;\n\n    // update supplier vote count\n    suppliers[_supplierId].voteCount ++;\n\n    //trigger vote event\n    emit VoteCast(_supplierId);\n  }\n}",
  "sourcePath": "/Users/aceituno/Documents/Thesis/Solidity/supplier-selection/contracts/SupplierSelection.sol",
  "compiler": {
    "name": "solc",
    "version": "0.5.16+commit.9c3226ce.Emscripten.clang"
  },
  "schemaVersion": "3.0.20",
  "updatedAt": "2020-01-12T21:45:17.711Z",
  "networkType": "ethereum",
  "devdoc": {
    "methods": {}
  },
  "userdoc": {
    "methods": {}
  }
}